{
  "contractName": "BountyStorage",
  "abi": [
    {
      "constant": false,
      "inputs": [
        {
          "name": "myid",
          "type": "bytes32"
        },
        {
          "name": "result",
          "type": "string"
        }
      ],
      "name": "__callback",
      "outputs": [],
      "payable": false,
      "stateMutability": "nonpayable",
      "type": "function"
    },
    {
      "constant": false,
      "inputs": [
        {
          "name": "myid",
          "type": "bytes32"
        },
        {
          "name": "result",
          "type": "string"
        },
        {
          "name": "proof",
          "type": "bytes"
        }
      ],
      "name": "__callback",
      "outputs": [],
      "payable": false,
      "stateMutability": "nonpayable",
      "type": "function"
    },
    {
      "constant": true,
      "inputs": [
        {
          "name": "",
          "type": "uint256"
        }
      ],
      "name": "claimants",
      "outputs": [
        {
          "name": "nextClaimantId",
          "type": "uint256"
        }
      ],
      "payable": false,
      "stateMutability": "view",
      "type": "function"
    },
    {
      "constant": true,
      "inputs": [
        {
          "name": "",
          "type": "uint256"
        }
      ],
      "name": "bounties",
      "outputs": [
        {
          "name": "id",
          "type": "uint256"
        },
        {
          "name": "state",
          "type": "uint8"
        },
        {
          "name": "price",
          "type": "uint256"
        },
        {
          "name": "completionExpiration",
          "type": "uint256"
        },
        {
          "name": "reviewExpiration",
          "type": "uint256"
        },
        {
          "name": "poster",
          "type": "address"
        },
        {
          "name": "bountyText",
          "type": "string"
        }
      ],
      "payable": false,
      "stateMutability": "view",
      "type": "function"
    },
    {
      "constant": true,
      "inputs": [],
      "name": "nextBountyId",
      "outputs": [
        {
          "name": "",
          "type": "uint256"
        }
      ],
      "payable": false,
      "stateMutability": "view",
      "type": "function"
    },
    {
      "inputs": [],
      "payable": true,
      "stateMutability": "payable",
      "type": "constructor"
    },
    {
      "anonymous": false,
      "inputs": [
        {
          "indexed": false,
          "name": "nextStep",
          "type": "string"
        }
      ],
      "name": "LogConstructorInitiated",
      "type": "event"
    },
    {
      "anonymous": false,
      "inputs": [
        {
          "indexed": false,
          "name": "_from",
          "type": "address"
        },
        {
          "indexed": false,
          "name": "_id",
          "type": "uint256"
        }
      ],
      "name": "addedBounty",
      "type": "event"
    },
    {
      "anonymous": false,
      "inputs": [
        {
          "indexed": false,
          "name": "_from",
          "type": "address"
        },
        {
          "indexed": false,
          "name": "_claimantId",
          "type": "uint256"
        },
        {
          "indexed": false,
          "name": "_bountyId",
          "type": "uint256"
        }
      ],
      "name": "claimedBounty",
      "type": "event"
    },
    {
      "anonymous": false,
      "inputs": [
        {
          "indexed": false,
          "name": "_from",
          "type": "address"
        },
        {
          "indexed": false,
          "name": "_claimantId",
          "type": "uint256"
        },
        {
          "indexed": false,
          "name": "_bountyId",
          "type": "uint256"
        }
      ],
      "name": "approvedBounty",
      "type": "event"
    },
    {
      "anonymous": false,
      "inputs": [
        {
          "indexed": false,
          "name": "_from",
          "type": "address"
        },
        {
          "indexed": false,
          "name": "_id",
          "type": "uint256"
        }
      ],
      "name": "arbitratedBounty",
      "type": "event"
    },
    {
      "anonymous": false,
      "inputs": [
        {
          "indexed": false,
          "name": "_from",
          "type": "address"
        }
      ],
      "name": "requestingRandomNumber",
      "type": "event"
    },
    {
      "anonymous": false,
      "inputs": [
        {
          "indexed": false,
          "name": "_from",
          "type": "address"
        },
        {
          "indexed": false,
          "name": "_myid",
          "type": "bytes32"
        },
        {
          "indexed": false,
          "name": "_result",
          "type": "uint256"
        }
      ],
      "name": "receivedRandomNumber",
      "type": "event"
    },
    {
      "constant": false,
      "inputs": [
        {
          "name": "bountyText",
          "type": "string"
        },
        {
          "name": "completion",
          "type": "uint256"
        },
        {
          "name": "review",
          "type": "uint256"
        },
        {
          "name": "price",
          "type": "uint256"
        }
      ],
      "name": "addBounty",
      "outputs": [],
      "payable": false,
      "stateMutability": "nonpayable",
      "type": "function"
    },
    {
      "constant": false,
      "inputs": [
        {
          "name": "bountyId",
          "type": "uint256"
        },
        {
          "name": "answerText",
          "type": "string"
        }
      ],
      "name": "claimBounty",
      "outputs": [
        {
          "name": "",
          "type": "uint256"
        }
      ],
      "payable": false,
      "stateMutability": "nonpayable",
      "type": "function"
    },
    {
      "constant": true,
      "inputs": [
        {
          "name": "bountyId",
          "type": "uint256"
        }
      ],
      "name": "getClaimantNumber",
      "outputs": [
        {
          "name": "",
          "type": "uint256"
        }
      ],
      "payable": false,
      "stateMutability": "view",
      "type": "function"
    },
    {
      "constant": true,
      "inputs": [
        {
          "name": "bountyId",
          "type": "uint256"
        },
        {
          "name": "claimantId",
          "type": "uint256"
        }
      ],
      "name": "getClaimant",
      "outputs": [
        {
          "name": "claimant",
          "type": "address"
        },
        {
          "name": "answer",
          "type": "string"
        },
        {
          "name": "claimantIdRes",
          "type": "uint256"
        },
        {
          "name": "bountyIdRes",
          "type": "uint256"
        },
        {
          "name": "approved",
          "type": "bool"
        }
      ],
      "payable": false,
      "stateMutability": "view",
      "type": "function"
    },
    {
      "constant": false,
      "inputs": [
        {
          "name": "bountyId",
          "type": "uint256"
        },
        {
          "name": "claimantId",
          "type": "uint256"
        }
      ],
      "name": "approveBounty",
      "outputs": [
        {
          "name": "",
          "type": "uint256"
        }
      ],
      "payable": false,
      "stateMutability": "nonpayable",
      "type": "function"
    }
  ],
  "bytecode": "0x60806040527f11a3fca63f87bd67d7f9f72b744acc8be2193705e7a734ac3a773d35d259e87b6040518080602001828103825260498152602001807f436f6e7374727563746f722077617320696e697469617465642e2043616c6c2081526020017f2767657452616e646f6d28292720746f2073656e6420746865204f7261636c6981526020017f7a652051756572792e000000000000000000000000000000000000000000000081525060600191505060405180910390a1610e1a806100c76000396000f3006080604052600436106100a4576000357c0100000000000000000000000000000000000000000000000000000000900463ffffffff1680631a426550146100a95780631cd52acb1461013057806327dc297e1461022c57806338bbfa50146102a3578063961bee5a146103605780639b13aa9e146103e7578063c72cdf5a14610428578063d1c67d5814610473578063dc2f8744146104b4578063fd14fad4146105be575b600080fd5b3480156100b557600080fd5b5061011a60048036038101908080359060200190929190803590602001908201803590602001908080601f01602080910402602001604051908101604052809392919081815260200183838082843782019150505050505091929192905050506105e9565b6040518082815260200191505060405180910390f35b34801561013c57600080fd5b5061016560048036038101908080359060200190929190803590602001909291905050506107f1565b604051808673ffffffffffffffffffffffffffffffffffffffff1673ffffffffffffffffffffffffffffffffffffffff1681526020018060200185815260200184815260200183151515158152602001828103825286818151815260200191508051906020019080838360005b838110156101ed5780820151818401526020810190506101d2565b50505050905090810190601f16801561021a5780820380516001836020036101000a031916815260200191505b50965050505050505060405180910390f35b34801561023857600080fd5b506102a16004803603810190808035600019169060200190929190803590602001908201803590602001908080601f0160208091040260200160405190810160405280939291908181526020018383808284378201915050505050509192919290505050610917565b005b3480156102af57600080fd5b5061035e6004803603810190808035600019169060200190929190803590602001908201803590602001908080601f0160208091040260200160405190810160405280939291908181526020018383808284378201915050505050509192919290803590602001908201803590602001908080601f016020809104026020016040519081016040528093929190818152602001838380828437820191505050505050919291929050505061095a565b005b34801561036c57600080fd5b506103e5600480360381019080803590602001908201803590602001908080601f016020809104026020016040519081016040528093929190818152602001838380828437820191505050505050919291929080359060200190929190803590602001909291908035906020019092919050505061095f565b005b3480156103f357600080fd5b5061041260048036038101908080359060200190929190505050610b08565b6040518082815260200191505060405180910390f35b34801561043457600080fd5b5061045d6004803603810190808035906020019092919080359060200190929190505050610b28565b6040518082815260200191505060405180910390f35b34801561047f57600080fd5b5061049e60048036038101908080359060200190929190505050610c1e565b6040518082815260200191505060405180910390f35b3480156104c057600080fd5b506104df60048036038101908080359060200190929190505050610c3c565b604051808881526020018760038111156104f557fe5b60ff1681526020018681526020018581526020018481526020018373ffffffffffffffffffffffffffffffffffffffff1673ffffffffffffffffffffffffffffffffffffffff16815260200180602001828103825283818151815260200191508051906020019080838360005b8381101561057d578082015181840152602081019050610562565b50505050905090810190601f1680156105aa5780820380516001836020036101000a031916815260200191505b509850505050505050505060405180910390f35b3480156105ca57600080fd5b506105d3610d43565b6040518082815260200191505060405180910390f35b600080600760008581526020019081526020016000206000015490507f8b5d8380de80455634a4fb5706ea731ba1bc5ed1296e21de4e0eede2feac4bbc338286604051808473ffffffffffffffffffffffffffffffffffffffff1673ffffffffffffffffffffffffffffffffffffffff168152602001838152602001828152602001935050505060405180910390a160016006600086815260200190815260200160002060010160006101000a81548160ff021916908360038111156106ab57fe5b021790555060a0604051908101604052803373ffffffffffffffffffffffffffffffffffffffff1681526020018481526020018281526020018581526020016000151581525060076000868152602001908152602001600020600101600083815260200190815260200160002060008201518160000160006101000a81548173ffffffffffffffffffffffffffffffffffffffff021916908373ffffffffffffffffffffffffffffffffffffffff160217905550602082015181600101908051906020019061077b929190610d49565b50604082015181600201556060820151816003015560808201518160040160006101000a81548160ff021916908315150217905550905050600181016007600086815260200190815260200160002060000181905550600760008581526020019081526020016000206000015491505092915050565b6000606060008060008060076000898152602001908152602001600020600101600088815260200190815260200160002090508060000160009054906101000a900473ffffffffffffffffffffffffffffffffffffffff169550806001018054600181600116156101000203166002900480601f0160208091040260200160405190810160405280929190818152602001828054600181600116156101000203166002900480156108e35780601f106108b8576101008083540402835291602001916108e3565b820191906000526020600020905b8154815290600101906020018083116108c657829003601f168201915b5050505050945080600201549350806003015492508060040160009054906101000a900460ff169150509295509295909350565b610956828260006040519080825280601f01601f1916602001820160405280156109505781602001602082028038833980820191505090505b5061095a565b5050565b505050565b7fdd4d6d20d5a1ea0d845a39d154c6ed402923dcabc6e61fcd0d62c8c49ed8e62733600554604051808373ffffffffffffffffffffffffffffffffffffffff1673ffffffffffffffffffffffffffffffffffffffff1681526020018281526020019250505060405180910390a160e0604051908101604052806005548152602001600060038111156109ed57fe5b81526020018281526020018481526020018381526020013373ffffffffffffffffffffffffffffffffffffffff168152602001858152506006600060055481526020019081526020016000206000820151816000015560208201518160010160006101000a81548160ff02191690836003811115610a6757fe5b021790555060408201518160020155606082015181600301556080820151816004015560a08201518160050160006101000a81548173ffffffffffffffffffffffffffffffffffffffff021916908373ffffffffffffffffffffffffffffffffffffffff16021790555060c0820151816006019080519060200190610aed929190610d49565b50905050600160056000828254019250508190555050505050565b600060076000838152602001908152602001600020600001549050919050565b60007f3cb15bb40c7a95b03bab9ca3cce15fefb82584098aa43c6fa7a1cf49d35c957e338385604051808473ffffffffffffffffffffffffffffffffffffffff1673ffffffffffffffffffffffffffffffffffffffff168152602001838152602001828152602001935050505060405180910390a160036006600085815260200190815260200160002060010160006101000a81548160ff02191690836003811115610bd057fe5b0217905550600160076000858152602001908152602001600020600101600084815260200190815260200160002060040160006101000a81548160ff02191690831515021790555092915050565b60076020528060005260406000206000915090508060000154905081565b60066020528060005260406000206000915090508060000154908060010160009054906101000a900460ff16908060020154908060030154908060040154908060050160009054906101000a900473ffffffffffffffffffffffffffffffffffffffff1690806006018054600181600116156101000203166002900480601f016020809104026020016040519081016040528092919081815260200182805460018160011615610100020316600290048015610d395780601f10610d0e57610100808354040283529160200191610d39565b820191906000526020600020905b815481529060010190602001808311610d1c57829003601f168201915b5050505050905087565b60055481565b828054600181600116156101000203166002900490600052602060002090601f016020900481019282601f10610d8a57805160ff1916838001178555610db8565b82800160010185558215610db8579182015b82811115610db7578251825591602001919060010190610d9c565b5b509050610dc59190610dc9565b5090565b610deb91905b80821115610de7576000816000905550600101610dcf565b5090565b905600a165627a7a72305820f3d1b654cd976a22b7d3b28cfc7a0276b3e22e03f314fccee873d214ecc2c75a0029",
  "source": "pragma solidity ^0.4.24;\nimport \"installed_contracts/oraclize-api/contracts/usingOraclize.sol\";\n\n\ncontract BountyStorage is usingOraclize {\n    uint public nextBountyId;\n    mapping(uint => Bounty) public bounties;\n    mapping(uint => Claimants) public claimants;\n\n\n    enum Status { Unclaimed, PendingApproval, Arbitration, Resolved }\n    struct Bounty {\n        uint id;\n        Status state;\n        uint price;\n        uint completionExpiration;\n        uint reviewExpiration;\n        address poster;\n        string bountyText;\n    }\n    struct Claimant {\n        address claimant;\n        string answer;\n        uint claimantId;\n        uint bountyId;\n        bool approved;\n    }\n    struct Claimants {\n        uint nextClaimantId;\n        mapping(uint => Claimant) claimants;\n    }\n\n    event LogConstructorInitiated(string nextStep);\n    event addedBounty(address _from, uint _id);\n    event claimedBounty(address _from, uint _claimantId, uint _bountyId);\n    event approvedBounty(address _from, uint _claimantId, uint _bountyId);\n    event arbitratedBounty(address _from, uint _id);\n    event requestingRandomNumber(address _from);\n    event receivedRandomNumber(address _from, bytes32 _myid, uint _result);\n\n    constructor() payable {\n        emit LogConstructorInitiated(\"Constructor was initiated. Call 'getRandom()' to send the Oraclize Query.\");\n    }\n\n    // TODO: make payable and accept/store balances\n    function addBounty(string bountyText, uint completion, uint review, uint price) public {\n        emit addedBounty(msg.sender, nextBountyId);\n        bounties[nextBountyId] = Bounty({\n            id: nextBountyId,\n            state: Status.Unclaimed,\n            price: price,\n            completionExpiration: completion,\n            reviewExpiration: review,\n            poster: msg.sender,\n            bountyText: bountyText\n        });\n        nextBountyId += 1;\n    }\n\n    // TODO: add modifier ensuring it is within expiration, it is not already solved\n    function claimBounty(uint bountyId, string answerText) public returns(uint) {\n        uint claimantId = claimants[bountyId].nextClaimantId;\n        emit claimedBounty(msg.sender, claimantId, bountyId);\n        bounties[bountyId].state = Status.PendingApproval;\n        claimants[bountyId].claimants[claimantId] = Claimant({\n            claimant: msg.sender,\n            answer: answerText,\n            claimantId: claimantId,\n            bountyId: bountyId,\n            approved: false\n        });\n        claimants[bountyId].nextClaimantId = claimantId + 1;\n        return claimants[bountyId].nextClaimantId;\n    }\n\n    function getClaimantNumber(uint bountyId) view public returns(uint) {\n        return claimants[bountyId].nextClaimantId;\n    }\n\n    function getClaimant(uint256 bountyId, uint256 claimantId) view public returns(\n        address claimant,\n        string answer,\n        uint256 claimantIdRes,\n        uint256 bountyIdRes,\n        bool approved\n    ) {\n        Claimant storage user = claimants[bountyId].claimants[claimantId];\n        claimant = user.claimant;\n        answer = user.answer;\n        claimantIdRes = user.claimantId;\n        bountyIdRes = user.bountyId;\n        approved = user.approved;\n    }\n\n    // TODO: add onlyOwner modifier, send money from escrow to claimant\n    function approveBounty(uint bountyId, uint claimantId) public returns(uint) {\n        emit approvedBounty(msg.sender, claimantId, bountyId);\n        bounties[bountyId].state = Status.Resolved;\n        claimants[bountyId].claimants[claimantId].approved = true;\n    }\n}",
  "sourcePath": "/Users/mattmartin/Documents/Notes/ConsenSys Academy/final_project/contracts/BountyStorage.sol",
  "compiler": {
    "name": "solc",
    "version": "0.4.24+commit.e67f0147.Emscripten.clang"
  },
  "schemaVersion": "2.0.1",
  "updatedAt": "2018-08-14T01:22:59.200Z"
}