{
  "contractName": "BountyStorage",
  "abi": [
    {
      "constant": true,
      "inputs": [
        {
          "name": "",
          "type": "uint256"
        }
      ],
      "name": "claimants",
      "outputs": [
        {
          "name": "nextClaimantId",
          "type": "uint256"
        }
      ],
      "payable": false,
      "stateMutability": "view",
      "type": "function"
    },
    {
      "constant": true,
      "inputs": [
        {
          "name": "",
          "type": "uint256"
        }
      ],
      "name": "bounties",
      "outputs": [
        {
          "name": "id",
          "type": "uint256"
        },
        {
          "name": "state",
          "type": "uint8"
        },
        {
          "name": "price",
          "type": "uint256"
        },
        {
          "name": "completionExpiration",
          "type": "uint256"
        },
        {
          "name": "reviewExpiration",
          "type": "uint256"
        },
        {
          "name": "poster",
          "type": "address"
        },
        {
          "name": "bountyText",
          "type": "string"
        }
      ],
      "payable": false,
      "stateMutability": "view",
      "type": "function"
    },
    {
      "constant": true,
      "inputs": [],
      "name": "nextBountyId",
      "outputs": [
        {
          "name": "",
          "type": "uint256"
        }
      ],
      "payable": false,
      "stateMutability": "view",
      "type": "function"
    },
    {
      "anonymous": false,
      "inputs": [
        {
          "indexed": false,
          "name": "_from",
          "type": "address"
        },
        {
          "indexed": false,
          "name": "_id",
          "type": "uint256"
        }
      ],
      "name": "addedBounty",
      "type": "event"
    },
    {
      "anonymous": false,
      "inputs": [
        {
          "indexed": false,
          "name": "_from",
          "type": "address"
        },
        {
          "indexed": false,
          "name": "_claimantId",
          "type": "uint256"
        },
        {
          "indexed": false,
          "name": "_bountyId",
          "type": "uint256"
        }
      ],
      "name": "claimedBounty",
      "type": "event"
    },
    {
      "anonymous": false,
      "inputs": [
        {
          "indexed": false,
          "name": "_from",
          "type": "address"
        },
        {
          "indexed": false,
          "name": "_claimantId",
          "type": "uint256"
        },
        {
          "indexed": false,
          "name": "_bountyId",
          "type": "uint256"
        }
      ],
      "name": "approvedBounty",
      "type": "event"
    },
    {
      "anonymous": false,
      "inputs": [
        {
          "indexed": false,
          "name": "_from",
          "type": "address"
        },
        {
          "indexed": false,
          "name": "_id",
          "type": "uint256"
        }
      ],
      "name": "arbitratedBounty",
      "type": "event"
    },
    {
      "constant": false,
      "inputs": [
        {
          "name": "bountyText",
          "type": "string"
        },
        {
          "name": "completion",
          "type": "uint256"
        },
        {
          "name": "review",
          "type": "uint256"
        },
        {
          "name": "price",
          "type": "uint256"
        }
      ],
      "name": "addBounty",
      "outputs": [],
      "payable": false,
      "stateMutability": "nonpayable",
      "type": "function"
    },
    {
      "constant": false,
      "inputs": [
        {
          "name": "bountyId",
          "type": "uint256"
        },
        {
          "name": "answerText",
          "type": "string"
        }
      ],
      "name": "claimBounty",
      "outputs": [
        {
          "name": "",
          "type": "uint256"
        }
      ],
      "payable": false,
      "stateMutability": "nonpayable",
      "type": "function"
    },
    {
      "constant": true,
      "inputs": [
        {
          "name": "bountyId",
          "type": "uint256"
        }
      ],
      "name": "getClaimantNumber",
      "outputs": [
        {
          "name": "",
          "type": "uint256"
        }
      ],
      "payable": false,
      "stateMutability": "view",
      "type": "function"
    },
    {
      "constant": true,
      "inputs": [
        {
          "name": "bountyId",
          "type": "uint256"
        },
        {
          "name": "claimantId",
          "type": "uint256"
        }
      ],
      "name": "getClaimant",
      "outputs": [
        {
          "name": "claimant",
          "type": "address"
        },
        {
          "name": "answer",
          "type": "string"
        },
        {
          "name": "claimantIdRes",
          "type": "uint256"
        },
        {
          "name": "bountyIdRes",
          "type": "uint256"
        },
        {
          "name": "approved",
          "type": "bool"
        }
      ],
      "payable": false,
      "stateMutability": "view",
      "type": "function"
    },
    {
      "constant": false,
      "inputs": [
        {
          "name": "bountyId",
          "type": "uint256"
        },
        {
          "name": "claimantId",
          "type": "uint256"
        }
      ],
      "name": "approveBounty",
      "outputs": [
        {
          "name": "",
          "type": "uint256"
        }
      ],
      "payable": false,
      "stateMutability": "nonpayable",
      "type": "function"
    }
  ],
  "bytecode": "0x608060405234801561001057600080fd5b50610c85806100206000396000f30060806040526004361061008e576000357c0100000000000000000000000000000000000000000000000000000000900463ffffffff1680631a426550146100935780631cd52acb1461011a578063961bee5a146102165780639b13aa9e1461029d578063c72cdf5a146102de578063d1c67d5814610329578063dc2f87441461036a578063fd14fad414610474575b600080fd5b34801561009f57600080fd5b5061010460048036038101908080359060200190929190803590602001908201803590602001908080601f016020809104026020016040519081016040528093929190818152602001838380828437820191505050505050919291929050505061049f565b6040518082815260200191505060405180910390f35b34801561012657600080fd5b5061014f60048036038101908080359060200190929190803590602001909291905050506106a6565b604051808673ffffffffffffffffffffffffffffffffffffffff1673ffffffffffffffffffffffffffffffffffffffff1681526020018060200185815260200184815260200183151515158152602001828103825286818151815260200191508051906020019080838360005b838110156101d75780820151818401526020810190506101bc565b50505050905090810190601f1680156102045780820380516001836020036101000a031916815260200191505b50965050505050505060405180910390f35b34801561022257600080fd5b5061029b600480360381019080803590602001908201803590602001908080601f01602080910402602001604051908101604052809392919081815260200183838082843782019150505050505091929192908035906020019092919080359060200190929190803590602001909291905050506107cc565b005b3480156102a957600080fd5b506102c860048036038101908080359060200190929190505050610973565b6040518082815260200191505060405180910390f35b3480156102ea57600080fd5b506103136004803603810190808035906020019092919080359060200190929190505050610993565b6040518082815260200191505060405180910390f35b34801561033557600080fd5b5061035460048036038101908080359060200190929190505050610a89565b6040518082815260200191505060405180910390f35b34801561037657600080fd5b5061039560048036038101908080359060200190929190505050610aa7565b604051808881526020018760038111156103ab57fe5b60ff1681526020018681526020018581526020018481526020018373ffffffffffffffffffffffffffffffffffffffff1673ffffffffffffffffffffffffffffffffffffffff16815260200180602001828103825283818151815260200191508051906020019080838360005b83811015610433578082015181840152602081019050610418565b50505050905090810190601f1680156104605780820380516001836020036101000a031916815260200191505b509850505050505050505060405180910390f35b34801561048057600080fd5b50610489610bae565b6040518082815260200191505060405180910390f35b600080600260008581526020019081526020016000206000015490507f8b5d8380de80455634a4fb5706ea731ba1bc5ed1296e21de4e0eede2feac4bbc338286604051808473ffffffffffffffffffffffffffffffffffffffff1673ffffffffffffffffffffffffffffffffffffffff168152602001838152602001828152602001935050505060405180910390a1600180600086815260200190815260200160002060010160006101000a81548160ff0219169083600381111561056057fe5b021790555060a0604051908101604052803373ffffffffffffffffffffffffffffffffffffffff1681526020018481526020018281526020018581526020016000151581525060026000868152602001908152602001600020600101600083815260200190815260200160002060008201518160000160006101000a81548173ffffffffffffffffffffffffffffffffffffffff021916908373ffffffffffffffffffffffffffffffffffffffff1602179055506020820151816001019080519060200190610630929190610bb4565b50604082015181600201556060820151816003015560808201518160040160006101000a81548160ff021916908315150217905550905050600181016002600086815260200190815260200160002060000181905550600260008581526020019081526020016000206000015491505092915050565b6000606060008060008060026000898152602001908152602001600020600101600088815260200190815260200160002090508060000160009054906101000a900473ffffffffffffffffffffffffffffffffffffffff169550806001018054600181600116156101000203166002900480601f0160208091040260200160405190810160405280929190818152602001828054600181600116156101000203166002900480156107985780601f1061076d57610100808354040283529160200191610798565b820191906000526020600020905b81548152906001019060200180831161077b57829003601f168201915b5050505050945080600201549350806003015492508060040160009054906101000a900460ff169150509295509295909350565b7fdd4d6d20d5a1ea0d845a39d154c6ed402923dcabc6e61fcd0d62c8c49ed8e62733600054604051808373ffffffffffffffffffffffffffffffffffffffff1673ffffffffffffffffffffffffffffffffffffffff1681526020018281526020019250505060405180910390a160e06040519081016040528060005481526020016000600381111561085a57fe5b81526020018281526020018481526020018381526020013373ffffffffffffffffffffffffffffffffffffffff1681526020018581525060016000805481526020019081526020016000206000820151816000015560208201518160010160006101000a81548160ff021916908360038111156108d357fe5b021790555060408201518160020155606082015181600301556080820151816004015560a08201518160050160006101000a81548173ffffffffffffffffffffffffffffffffffffffff021916908373ffffffffffffffffffffffffffffffffffffffff16021790555060c0820151816006019080519060200190610959929190610bb4565b509050506001600080828254019250508190555050505050565b600060026000838152602001908152602001600020600001549050919050565b60007f3cb15bb40c7a95b03bab9ca3cce15fefb82584098aa43c6fa7a1cf49d35c957e338385604051808473ffffffffffffffffffffffffffffffffffffffff1673ffffffffffffffffffffffffffffffffffffffff168152602001838152602001828152602001935050505060405180910390a160036001600085815260200190815260200160002060010160006101000a81548160ff02191690836003811115610a3b57fe5b0217905550600160026000858152602001908152602001600020600101600084815260200190815260200160002060040160006101000a81548160ff02191690831515021790555092915050565b60026020528060005260406000206000915090508060000154905081565b60016020528060005260406000206000915090508060000154908060010160009054906101000a900460ff16908060020154908060030154908060040154908060050160009054906101000a900473ffffffffffffffffffffffffffffffffffffffff1690806006018054600181600116156101000203166002900480601f016020809104026020016040519081016040528092919081815260200182805460018160011615610100020316600290048015610ba45780601f10610b7957610100808354040283529160200191610ba4565b820191906000526020600020905b815481529060010190602001808311610b8757829003601f168201915b5050505050905087565b60005481565b828054600181600116156101000203166002900490600052602060002090601f016020900481019282601f10610bf557805160ff1916838001178555610c23565b82800160010185558215610c23579182015b82811115610c22578251825591602001919060010190610c07565b5b509050610c309190610c34565b5090565b610c5691905b80821115610c52576000816000905550600101610c3a565b5090565b905600a165627a7a72305820de339d4088c697ff170bcaffa8fc647bb79c099c50a628c0bc0609a6567c9f970029",
  "source": "pragma solidity ^0.4.24;\n\n\ncontract BountyStorage {\n    uint public nextBountyId;\n    mapping(uint => Bounty) public bounties;\n    mapping(uint => Claimants) public claimants;\n\n    enum Status { Unclaimed, PendingApproval, Arbitration, Resolved }\n    struct Bounty {\n        uint id;\n        Status state;\n        uint price;\n        uint completionExpiration;\n        uint reviewExpiration;\n        address poster;\n        string bountyText;\n    }\n    struct Claimant {\n        address claimant;\n        string answer;\n        uint claimantId;\n        uint bountyId;\n        bool approved;\n    }\n    struct Claimants {\n        uint nextClaimantId;\n        mapping(uint => Claimant) claimants;\n    }\n\n    event addedBounty(address _from, uint _id);\n    event claimedBounty(address _from, uint _claimantId, uint _bountyId);\n    event approvedBounty(address _from, uint _claimantId, uint _bountyId);\n    event arbitratedBounty(address _from, uint _id);\n\n    // TODO: make payable and accept/store balances\n    function addBounty(string bountyText, uint completion, uint review, uint price) public {\n        emit addedBounty(msg.sender, nextBountyId);\n        bounties[nextBountyId] = Bounty({\n            id: nextBountyId,\n            state: Status.Unclaimed,\n            price: price,\n            completionExpiration: completion,\n            reviewExpiration: review,\n            poster: msg.sender,\n            bountyText: bountyText\n        });\n        nextBountyId += 1;\n    }\n\n    // TODO: add modifier ensuring it is within expiration, it is not already solved\n    function claimBounty(uint bountyId, string answerText) public returns(uint) {\n        uint claimantId = claimants[bountyId].nextClaimantId;\n        emit claimedBounty(msg.sender, claimantId, bountyId);\n        bounties[bountyId].state = Status.PendingApproval;\n        claimants[bountyId].claimants[claimantId] = Claimant({\n            claimant: msg.sender,\n            answer: answerText,\n            claimantId: claimantId,\n            bountyId: bountyId,\n            approved: false\n        });\n        claimants[bountyId].nextClaimantId = claimantId + 1;\n        return claimants[bountyId].nextClaimantId;\n    }\n\n    function getClaimantNumber(uint bountyId) view public returns(uint) {\n        return claimants[bountyId].nextClaimantId;\n    }\n\n    function getClaimant(uint256 bountyId, uint256 claimantId) view public returns(\n        address claimant,\n        string answer,\n        uint256 claimantIdRes,\n        uint256 bountyIdRes,\n        bool approved\n    ) {\n        Claimant storage user = claimants[bountyId].claimants[claimantId];\n        claimant = user.claimant;\n        answer = user.answer;\n        claimantIdRes = user.claimantId;\n        bountyIdRes = user.bountyId;\n        approved = user.approved;\n    }\n\n    // TODO: add onlyOwner modifier, send money from escrow to claimant\n    function approveBounty(uint bountyId, uint claimantId) public returns(uint) {\n        emit approvedBounty(msg.sender, claimantId, bountyId);\n        bounties[bountyId].state = Status.Resolved;\n        claimants[bountyId].claimants[claimantId].approved = true;\n    }\n}",
  "sourcePath": "/Users/mattmartin/Documents/Notes/ConsenSys Academy/final_project/contracts/BountyStorage.sol",
  "compiler": {
    "name": "solc",
    "version": "0.4.24+commit.e67f0147.Emscripten.clang"
  },
  "schemaVersion": "2.0.1",
  "updatedAt": "2018-08-13T15:30:28.432Z"
}