{
  "contractName": "OraclizeTest",
  "abi": [
    {
      "constant": true,
      "inputs": [],
      "name": "ETHUSD",
      "outputs": [
        {
          "name": "",
          "type": "string"
        }
      ],
      "payable": false,
      "stateMutability": "view",
      "type": "function"
    },
    {
      "constant": true,
      "inputs": [],
      "name": "randNum",
      "outputs": [
        {
          "name": "",
          "type": "uint256"
        }
      ],
      "payable": false,
      "stateMutability": "view",
      "type": "function"
    },
    {
      "inputs": [],
      "payable": true,
      "stateMutability": "payable",
      "type": "constructor"
    },
    {
      "payable": false,
      "stateMutability": "nonpayable",
      "type": "fallback"
    },
    {
      "anonymous": false,
      "inputs": [
        {
          "indexed": false,
          "name": "description",
          "type": "string"
        }
      ],
      "name": "LogInfo",
      "type": "event"
    },
    {
      "anonymous": false,
      "inputs": [
        {
          "indexed": false,
          "name": "price",
          "type": "string"
        }
      ],
      "name": "LogPriceUpdate",
      "type": "event"
    },
    {
      "anonymous": false,
      "inputs": [
        {
          "indexed": true,
          "name": "_owner",
          "type": "address"
        },
        {
          "indexed": true,
          "name": "_balance",
          "type": "uint256"
        }
      ],
      "name": "LogUpdate",
      "type": "event"
    },
    {
      "constant": false,
      "inputs": [
        {
          "name": "myid",
          "type": "bytes32"
        },
        {
          "name": "result",
          "type": "string"
        }
      ],
      "name": "__callback",
      "outputs": [],
      "payable": false,
      "stateMutability": "nonpayable",
      "type": "function"
    },
    {
      "constant": false,
      "inputs": [
        {
          "name": "id",
          "type": "bytes32"
        },
        {
          "name": "result",
          "type": "string"
        },
        {
          "name": "proof",
          "type": "bytes"
        }
      ],
      "name": "__callback",
      "outputs": [],
      "payable": false,
      "stateMutability": "nonpayable",
      "type": "function"
    },
    {
      "constant": false,
      "inputs": [],
      "name": "getBalance",
      "outputs": [
        {
          "name": "_balance",
          "type": "uint256"
        }
      ],
      "payable": false,
      "stateMutability": "nonpayable",
      "type": "function"
    },
    {
      "constant": false,
      "inputs": [],
      "name": "update",
      "outputs": [],
      "payable": true,
      "stateMutability": "payable",
      "type": "function"
    }
  ],
  "bytecode": "0x608060405233600560006101000a81548173ffffffffffffffffffffffffffffffffffffffff021916908373ffffffffffffffffffffffffffffffffffffffff1602179055503073ffffffffffffffffffffffffffffffffffffffff1631600560009054906101000a900473ffffffffffffffffffffffffffffffffffffffff1673ffffffffffffffffffffffffffffffffffffffff167fd176e7c6abd789c341ab22cef27aa1fbc7461f5f9d6a6e55faa0b9df32a7051460405160405180910390a3736f485c8bf6fc43ea212e93bbf8ce046c7f1cb4756000806101000a81548173ffffffffffffffffffffffffffffffffffffffff021916908373ffffffffffffffffffffffffffffffffffffffff1602179055506200017860017f01000000000000000000000000000000000000000000000000000000000000000260107f010000000000000000000000000000000000000000000000000000000000000002176200017e640100000000026401000000009004565b62000b82565b60008060009054906101000a900473ffffffffffffffffffffffffffffffffffffffff1673ffffffffffffffffffffffffffffffffffffffff161480620001ff57506000620001fd6000809054906101000a900473ffffffffffffffffffffffffffffffffffffffff1662000532640100000000026401000000009004565b145b1562000222576200022060006200053d640100000000026401000000009004565b505b6000809054906101000a900473ffffffffffffffffffffffffffffffffffffffff1673ffffffffffffffffffffffffffffffffffffffff166338cc48316040518163ffffffff167c0100000000000000000000000000000000000000000000000000000000028152600401602060405180830381600087803b158015620002a857600080fd5b505af1158015620002bd573d6000803e3d6000fd5b505050506040513d6020811015620002d457600080fd5b810190808051906020019092919050505073ffffffffffffffffffffffffffffffffffffffff16600160009054906101000a900473ffffffffffffffffffffffffffffffffffffffff1673ffffffffffffffffffffffffffffffffffffffff1614151562000440576000809054906101000a900473ffffffffffffffffffffffffffffffffffffffff1673ffffffffffffffffffffffffffffffffffffffff166338cc48316040518163ffffffff167c0100000000000000000000000000000000000000000000000000000000028152600401602060405180830381600087803b158015620003c257600080fd5b505af1158015620003d7573d6000803e3d6000fd5b505050506040513d6020811015620003ee57600080fd5b8101908080519060200190929190505050600160006101000a81548173ffffffffffffffffffffffffffffffffffffffff021916908373ffffffffffffffffffffffffffffffffffffffff1602179055505b600160009054906101000a900473ffffffffffffffffffffffffffffffffffffffff1673ffffffffffffffffffffffffffffffffffffffff1663688dcfd7826040518263ffffffff167c010000000000000000000000000000000000000000000000000000000002815260040180827effffffffffffffffffffffffffffffffffffffffffffffffffffffffffffff19167effffffffffffffffffffffffffffffffffffffffffffffffffffffffffffff19168152602001915050600060405180830381600087803b1580156200051657600080fd5b505af11580156200052b573d6000803e3d6000fd5b5050505050565b6000813b9050919050565b6000620005586200055f640100000000026401000000009004565b9050919050565b60008062000590731d3b2638a7cc9f2cb3d298a3da7a90b67e5506ed62000532640100000000026401000000009004565b11156200064457731d3b2638a7cc9f2cb3d298a3da7a90b67e5506ed6000806101000a81548173ffffffffffffffffffffffffffffffffffffffff021916908373ffffffffffffffffffffffffffffffffffffffff1602179055506200063a6040805190810160405280600b81526020017f6574685f6d61696e6e657400000000000000000000000000000000000000000081525062000ab7640100000000026401000000009004565b6001905062000ab4565b60006200067473c03a2615d5efaf5f49f60b7bb6583eaec212fdf162000532640100000000026401000000009004565b1115620007285773c03a2615d5efaf5f49f60b7bb6583eaec212fdf16000806101000a81548173ffffffffffffffffffffffffffffffffffffffff021916908373ffffffffffffffffffffffffffffffffffffffff1602179055506200071e6040805190810160405280600c81526020017f6574685f726f707374656e33000000000000000000000000000000000000000081525062000ab7640100000000026401000000009004565b6001905062000ab4565b60006200075873b7a07bcf2ba2f2703b24c0691b5278999c59ac7e62000532640100000000026401000000009004565b11156200080c5773b7a07bcf2ba2f2703b24c0691b5278999c59ac7e6000806101000a81548173ffffffffffffffffffffffffffffffffffffffff021916908373ffffffffffffffffffffffffffffffffffffffff160217905550620008026040805190810160405280600981526020017f6574685f6b6f76616e000000000000000000000000000000000000000000000081525062000ab7640100000000026401000000009004565b6001905062000ab4565b60006200083c73146500cfd35b22e4a392fe0adc06de1a1368ed4862000532640100000000026401000000009004565b1115620008f05773146500cfd35b22e4a392fe0adc06de1a1368ed486000806101000a81548173ffffffffffffffffffffffffffffffffffffffff021916908373ffffffffffffffffffffffffffffffffffffffff160217905550620008e66040805190810160405280600b81526020017f6574685f72696e6b65627900000000000000000000000000000000000000000081525062000ab7640100000000026401000000009004565b6001905062000ab4565b600062000920736f485c8bf6fc43ea212e93bbf8ce046c7f1cb47562000532640100000000026401000000009004565b11156200098557736f485c8bf6fc43ea212e93bbf8ce046c7f1cb4756000806101000a81548173ffffffffffffffffffffffffffffffffffffffff021916908373ffffffffffffffffffffffffffffffffffffffff1602179055506001905062000ab4565b6000620009b57320e12a1f859b3feae5fb2a0a32c18f5a65555bbf62000532640100000000026401000000009004565b111562000a1a577320e12a1f859b3feae5fb2a0a32c18f5a65555bbf6000806101000a81548173ffffffffffffffffffffffffffffffffffffffff021916908373ffffffffffffffffffffffffffffffffffffffff1602179055506001905062000ab4565b600062000a4a7351efaf4c8b3c9afbd5ab9f4bbc82784ab6ef8faa62000532640100000000026401000000009004565b111562000aaf577351efaf4c8b3c9afbd5ab9f4bbc82784ab6ef8faa6000806101000a81548173ffffffffffffffffffffffffffffffffffffffff021916908373ffffffffffffffffffffffffffffffffffffffff1602179055506001905062000ab4565b600090505b90565b806002908051906020019062000acf92919062000ad3565b5050565b828054600181600116156101000203166002900490600052602060002090601f016020900481019282601f1062000b1657805160ff191683800117855562000b47565b8280016001018555821562000b47579182015b8281111562000b4657825182559160200191906001019062000b29565b5b50905062000b56919062000b5a565b5090565b62000b7f91905b8082111562000b7b57600081600090555060010162000b61565b5090565b90565b6122ac8062000b926000396000f300608060405260043610610078576000357c0100000000000000000000000000000000000000000000000000000000900463ffffffff16806312065fe01461008a57806327dc297e146100b557806338bbfa501461012c57806373db0844146101e95780639ac8c0ef14610279578063a2e62045146102a4575b34801561008457600080fd5b50600080fd5b34801561009657600080fd5b5061009f6102ae565b6040518082815260200191505060405180910390f35b3480156100c157600080fd5b5061012a6004803603810190808035600019169060200190929190803590602001908201803590602001908080601f01602080910402602001604051908101604052809392919081815260200183838082843782019150505050505091929192905050506102cd565b005b34801561013857600080fd5b506101e76004803603810190808035600019169060200190929190803590602001908201803590602001908080601f0160208091040260200160405190810160405280939291908181526020018383808284378201915050505050509192919290803590602001908201803590602001908080601f0160208091040260200160405190810160405280939291908181526020018383808284378201915050505050509192919290505050610310565b005b3480156101f557600080fd5b506101fe6104d0565b6040518080602001828103825283818151815260200191508051906020019080838360005b8381101561023e578082015181840152602081019050610223565b50505050905090810190601f16801561026b5780820380516001836020036101000a031916815260200191505b509250505060405180910390f35b34801561028557600080fd5b5061028e61056e565b6040518082815260200191505060405180910390f35b6102ac610574565b005b60003073ffffffffffffffffffffffffffffffffffffffff1631905090565b61030c828260006040519080825280601f01601f1916602001820160405280156103065781602001602082028038833980820191505090505b50610310565b5050565b6103186108f1565b73ffffffffffffffffffffffffffffffffffffffff163373ffffffffffffffffffffffffffffffffffffffff1614151561035157600080fd5b81600690805190602001906103679291906121db565b5061040b60068054600181600116156101000203166002900480601f0160208091040260200160405190810160405280929190818152602001828054600181600116156101000203166002900480156104015780601f106103d657610100808354040283529160200191610401565b820191906000526020600020905b8154815290600101906020018083116103e457829003601f168201915b5050505050610c4f565b6007819055507f221dd4a47b82d98e10a2a0ebcfdd3314637ca70f414c6987ea6774a907cc06c2600660405180806020018281038252838181546001816001161561010002031660029004815260200191508054600181600116156101000203166002900480156104bd5780601f10610492576101008083540402835291602001916104bd565b820191906000526020600020905b8154815290600101906020018083116104a057829003601f168201915b50509250505060405180910390a1505050565b60068054600181600116156101000203166002900480601f0160208091040260200160405190810160405280929190818152602001828054600181600116156101000203166002900480156105665780601f1061053b57610100808354040283529160200191610566565b820191906000526020600020905b81548152906001019060200180831161054957829003601f168201915b505050505081565b60075481565b3073ffffffffffffffffffffffffffffffffffffffff16316105ca6040805190810160405280600381526020017f55524c0000000000000000000000000000000000000000000000000000000000815250610c63565b1115610689577ffee95ecae0c8f7f0743ec0ad254c78ab75e5ecca9f1ddcd9f11f9a98124b96bc60405180806020018281038252604b8152602001807f4f7261636c697a6520717565727920776173204e4f542073656e742c20706c6581526020017f6173652061646420736f6d652045544820746f20636f76657220666f7220746881526020017f652071756572792066656500000000000000000000000000000000000000000081525060600191505060405180910390a16108ef565b7ffee95ecae0c8f7f0743ec0ad254c78ab75e5ecca9f1ddcd9f11f9a98124b96bc6040518080602001828103825260358152602001807f4f7261636c697a65207175657279207761732073656e742c207374616e64696e81526020017f6720627920666f722074686520616e737765722e2e000000000000000000000081525060400191505060405180910390a16108ed6040805190810160405280600381526020017f55524c00000000000000000000000000000000000000000000000000000000008152506108e8606060405190810160405280603181526020017f68747470733a2f2f7777772e72616e646f6d2e6f72672f696e7465676572732f81526020017f3f6e756d3d31266d696e3d31266d61783d00000000000000000000000000000081525073__StringUtils___________________________63e939567960646040518263ffffffff167c01000000000000000000000000000000000000000000000000000000000281526004018082815260200191505060006040518083038186803b15801561081c57600080fd5b505af4158015610830573d6000803e3d6000fd5b505050506040513d6000823e3d601f19601f82011682018060405250602081101561085a57600080fd5b81019080805164010000000081111561087257600080fd5b8281019050602081018481111561088857600080fd5b81518560018202830111640100000000821117156108a557600080fd5b50509291905050506040805190810160405280601b81526020017f26636f6c3d3126626173653d313026666f726d61743d706c61696e0000000000815250611033565b61106b565b505b565b6000806000809054906101000a900473ffffffffffffffffffffffffffffffffffffffff1673ffffffffffffffffffffffffffffffffffffffff1614806109615750600061095f6000809054906101000a900473ffffffffffffffffffffffffffffffffffffffff1661160d565b145b15610972576109706000611618565b505b6000809054906101000a900473ffffffffffffffffffffffffffffffffffffffff1673ffffffffffffffffffffffffffffffffffffffff166338cc48316040518163ffffffff167c0100000000000000000000000000000000000000000000000000000000028152600401602060405180830381600087803b1580156109f757600080fd5b505af1158015610a0b573d6000803e3d6000fd5b505050506040513d6020811015610a2157600080fd5b810190808051906020019092919050505073ffffffffffffffffffffffffffffffffffffffff16600160009054906101000a900473ffffffffffffffffffffffffffffffffffffffff1673ffffffffffffffffffffffffffffffffffffffff16141515610b89576000809054906101000a900473ffffffffffffffffffffffffffffffffffffffff1673ffffffffffffffffffffffffffffffffffffffff166338cc48316040518163ffffffff167c0100000000000000000000000000000000000000000000000000000000028152600401602060405180830381600087803b158015610b0d57600080fd5b505af1158015610b21573d6000803e3d6000fd5b505050506040513d6020811015610b3757600080fd5b8101908080519060200190929190505050600160006101000a81548173ffffffffffffffffffffffffffffffffffffffff021916908373ffffffffffffffffffffffffffffffffffffffff1602179055505b600160009054906101000a900473ffffffffffffffffffffffffffffffffffffffff1673ffffffffffffffffffffffffffffffffffffffff1663c281d19e6040518163ffffffff167c0100000000000000000000000000000000000000000000000000000000028152600401602060405180830381600087803b158015610c0f57600080fd5b505af1158015610c23573d6000803e3d6000fd5b505050506040513d6020811015610c3957600080fd5b8101908080519060200190929190505050905090565b6000610c5c826000611629565b9050919050565b6000806000809054906101000a900473ffffffffffffffffffffffffffffffffffffffff1673ffffffffffffffffffffffffffffffffffffffff161480610cd357506000610cd16000809054906101000a900473ffffffffffffffffffffffffffffffffffffffff1661160d565b145b15610ce457610ce26000611618565b505b6000809054906101000a900473ffffffffffffffffffffffffffffffffffffffff1673ffffffffffffffffffffffffffffffffffffffff166338cc48316040518163ffffffff167c0100000000000000000000000000000000000000000000000000000000028152600401602060405180830381600087803b158015610d6957600080fd5b505af1158015610d7d573d6000803e3d6000fd5b505050506040513d6020811015610d9357600080fd5b810190808051906020019092919050505073ffffffffffffffffffffffffffffffffffffffff16600160009054906101000a900473ffffffffffffffffffffffffffffffffffffffff1673ffffffffffffffffffffffffffffffffffffffff16141515610efb576000809054906101000a900473ffffffffffffffffffffffffffffffffffffffff1673ffffffffffffffffffffffffffffffffffffffff166338cc48316040518163ffffffff167c0100000000000000000000000000000000000000000000000000000000028152600401602060405180830381600087803b158015610e7f57600080fd5b505af1158015610e93573d6000803e3d6000fd5b505050506040513d6020811015610ea957600080fd5b8101908080519060200190929190505050600160006101000a81548173ffffffffffffffffffffffffffffffffffffffff021916908373ffffffffffffffffffffffffffffffffffffffff1602179055505b600160009054906101000a900473ffffffffffffffffffffffffffffffffffffffff1673ffffffffffffffffffffffffffffffffffffffff1663524f3889836040518263ffffffff167c01000000000000000000000000000000000000000000000000000000000281526004018080602001828103825283818151815260200191508051906020019080838360005b83811015610fa5578082015181840152602081019050610f8a565b50505050905090810190601f168015610fd25780820380516001836020036101000a031916815260200191505b5092505050602060405180830381600087803b158015610ff157600080fd5b505af1158015611005573d6000803e3d6000fd5b505050506040513d602081101561101b57600080fd5b81019080805190602001909291905050509050919050565b60606110628484846020604051908101604052806000815250602060405190810160405280600081525061191d565b90509392505050565b60008060008060009054906101000a900473ffffffffffffffffffffffffffffffffffffffff1673ffffffffffffffffffffffffffffffffffffffff1614806110dd575060006110db6000809054906101000a900473ffffffffffffffffffffffffffffffffffffffff1661160d565b145b156110ee576110ec6000611618565b505b6000809054906101000a900473ffffffffffffffffffffffffffffffffffffffff1673ffffffffffffffffffffffffffffffffffffffff166338cc48316040518163ffffffff167c0100000000000000000000000000000000000000000000000000000000028152600401602060405180830381600087803b15801561117357600080fd5b505af1158015611187573d6000803e3d6000fd5b505050506040513d602081101561119d57600080fd5b810190808051906020019092919050505073ffffffffffffffffffffffffffffffffffffffff16600160009054906101000a900473ffffffffffffffffffffffffffffffffffffffff1673ffffffffffffffffffffffffffffffffffffffff16141515611305576000809054906101000a900473ffffffffffffffffffffffffffffffffffffffff1673ffffffffffffffffffffffffffffffffffffffff166338cc48316040518163ffffffff167c0100000000000000000000000000000000000000000000000000000000028152600401602060405180830381600087803b15801561128957600080fd5b505af115801561129d573d6000803e3d6000fd5b505050506040513d60208110156112b357600080fd5b8101908080519060200190929190505050600160006101000a81548173ffffffffffffffffffffffffffffffffffffffff021916908373ffffffffffffffffffffffffffffffffffffffff1602179055505b600160009054906101000a900473ffffffffffffffffffffffffffffffffffffffff1673ffffffffffffffffffffffffffffffffffffffff1663524f3889856040518263ffffffff167c01000000000000000000000000000000000000000000000000000000000281526004018080602001828103825283818151815260200191508051906020019080838360005b838110156113af578082015181840152602081019050611394565b50505050905090810190601f1680156113dc5780820380516001836020036101000a031916815260200191505b5092505050602060405180830381600087803b1580156113fb57600080fd5b505af115801561140f573d6000803e3d6000fd5b505050506040513d602081101561142557600080fd5b8101908080519060200190929190505050905062030d403a02670de0b6b3a76400000181111561145b5760006001029150611606565b600160009054906101000a900473ffffffffffffffffffffffffffffffffffffffff1673ffffffffffffffffffffffffffffffffffffffff1663adf59f9982600087876040518563ffffffff167c0100000000000000000000000000000000000000000000000000000000028152600401808481526020018060200180602001838103835285818151815260200191508051906020019080838360005b838110156115135780820151818401526020810190506114f8565b50505050905090810190601f1680156115405780820380516001836020036101000a031916815260200191505b50838103825284818151815260200191508051906020019080838360005b8381101561157957808201518184015260208101905061155e565b50505050905090810190601f1680156115a65780820380516001836020036101000a031916815260200191505b50955050505050506020604051808303818588803b1580156115c757600080fd5b505af11580156115db573d6000803e3d6000fd5b50505050506040513d60208110156115f257600080fd5b810190808051906020019092919050505091505b5092915050565b6000813b9050919050565b6000611622611d32565b9050919050565b6000606060008060008693506000925060009150600090505b83518110156118fe5760307f010000000000000000000000000000000000000000000000000000000000000002848281518110151561167d57fe5b9060200101517f010000000000000000000000000000000000000000000000000000000000000090047f0100000000000000000000000000000000000000000000000000000000000000027effffffffffffffffffffffffffffffffffffffffffffffffffffffffffffff191610158015611795575060397f010000000000000000000000000000000000000000000000000000000000000002848281518110151561172557fe5b9060200101517f010000000000000000000000000000000000000000000000000000000000000090047f0100000000000000000000000000000000000000000000000000000000000000027effffffffffffffffffffffffffffffffffffffffffffffffffffffffffffff191611155b156118465781156117b85760008614156117ae576118fe565b8580600190039650505b600a83029250603084828151811015156117ce57fe5b9060200101517f010000000000000000000000000000000000000000000000000000000000000090047f0100000000000000000000000000000000000000000000000000000000000000027f0100000000000000000000000000000000000000000000000000000000000000900403830192506118f1565b602e7f010000000000000000000000000000000000000000000000000000000000000002848281518110151561187857fe5b9060200101517f010000000000000000000000000000000000000000000000000000000000000090047f0100000000000000000000000000000000000000000000000000000000000000027effffffffffffffffffffffffffffffffffffffffffffffffffffffffffffff191614156118f057600191505b5b8080600101915050611642565b60008611156119105785600a0a830292505b8294505050505092915050565b6060806060806060806060806000808e98508d97508c96508b95508a94508451865188518a518c51010101016040519080825280601f01601f19166020018201604052801561197b5781602001602082028038833980820191505090505b50935083925060009150600090505b8851811015611a3d5788818151811015156119a157fe5b9060200101517f010000000000000000000000000000000000000000000000000000000000000090047f0100000000000000000000000000000000000000000000000000000000000000028383806001019450815181101515611a0057fe5b9060200101907effffffffffffffffffffffffffffffffffffffffffffffffffffffffffffff1916908160001a905350808060010191505061198a565b600090505b8751811015611af5578781815181101515611a5957fe5b9060200101517f010000000000000000000000000000000000000000000000000000000000000090047f0100000000000000000000000000000000000000000000000000000000000000028383806001019450815181101515611ab857fe5b9060200101907effffffffffffffffffffffffffffffffffffffffffffffffffffffffffffff1916908160001a9053508080600101915050611a42565b600090505b8651811015611bad578681815181101515611b1157fe5b9060200101517f010000000000000000000000000000000000000000000000000000000000000090047f0100000000000000000000000000000000000000000000000000000000000000028383806001019450815181101515611b7057fe5b9060200101907effffffffffffffffffffffffffffffffffffffffffffffffffffffffffffff1916908160001a9053508080600101915050611afa565b600090505b8551811015611c65578581815181101515611bc957fe5b9060200101517f010000000000000000000000000000000000000000000000000000000000000090047f0100000000000000000000000000000000000000000000000000000000000000028383806001019450815181101515611c2857fe5b9060200101907effffffffffffffffffffffffffffffffffffffffffffffffffffffffffffff1916908160001a9053508080600101915050611bb2565b600090505b8451811015611d1d578481815181101515611c8157fe5b9060200101517f010000000000000000000000000000000000000000000000000000000000000090047f0100000000000000000000000000000000000000000000000000000000000000028383806001019450815181101515611ce057fe5b9060200101907effffffffffffffffffffffffffffffffffffffffffffffffffffffffffffff1916908160001a9053508080600101915050611c6a565b82995050505050505050505095945050505050565b600080611d52731d3b2638a7cc9f2cb3d298a3da7a90b67e5506ed61160d565b1115611df357731d3b2638a7cc9f2cb3d298a3da7a90b67e5506ed6000806101000a81548173ffffffffffffffffffffffffffffffffffffffff021916908373ffffffffffffffffffffffffffffffffffffffff160217905550611dea6040805190810160405280600b81526020017f6574685f6d61696e6e65740000000000000000000000000000000000000000008152506121c1565b600190506121be565b6000611e1273c03a2615d5efaf5f49f60b7bb6583eaec212fdf161160d565b1115611eb35773c03a2615d5efaf5f49f60b7bb6583eaec212fdf16000806101000a81548173ffffffffffffffffffffffffffffffffffffffff021916908373ffffffffffffffffffffffffffffffffffffffff160217905550611eaa6040805190810160405280600c81526020017f6574685f726f707374656e3300000000000000000000000000000000000000008152506121c1565b600190506121be565b6000611ed273b7a07bcf2ba2f2703b24c0691b5278999c59ac7e61160d565b1115611f735773b7a07bcf2ba2f2703b24c0691b5278999c59ac7e6000806101000a81548173ffffffffffffffffffffffffffffffffffffffff021916908373ffffffffffffffffffffffffffffffffffffffff160217905550611f6a6040805190810160405280600981526020017f6574685f6b6f76616e00000000000000000000000000000000000000000000008152506121c1565b600190506121be565b6000611f9273146500cfd35b22e4a392fe0adc06de1a1368ed4861160d565b11156120335773146500cfd35b22e4a392fe0adc06de1a1368ed486000806101000a81548173ffffffffffffffffffffffffffffffffffffffff021916908373ffffffffffffffffffffffffffffffffffffffff16021790555061202a6040805190810160405280600b81526020017f6574685f72696e6b6562790000000000000000000000000000000000000000008152506121c1565b600190506121be565b6000612052736f485c8bf6fc43ea212e93bbf8ce046c7f1cb47561160d565b11156120b557736f485c8bf6fc43ea212e93bbf8ce046c7f1cb4756000806101000a81548173ffffffffffffffffffffffffffffffffffffffff021916908373ffffffffffffffffffffffffffffffffffffffff160217905550600190506121be565b60006120d47320e12a1f859b3feae5fb2a0a32c18f5a65555bbf61160d565b1115612137577320e12a1f859b3feae5fb2a0a32c18f5a65555bbf6000806101000a81548173ffffffffffffffffffffffffffffffffffffffff021916908373ffffffffffffffffffffffffffffffffffffffff160217905550600190506121be565b60006121567351efaf4c8b3c9afbd5ab9f4bbc82784ab6ef8faa61160d565b11156121b9577351efaf4c8b3c9afbd5ab9f4bbc82784ab6ef8faa6000806101000a81548173ffffffffffffffffffffffffffffffffffffffff021916908373ffffffffffffffffffffffffffffffffffffffff160217905550600190506121be565b600090505b90565b80600290805190602001906121d79291906121db565b5050565b828054600181600116156101000203166002900490600052602060002090601f016020900481019282601f1061221c57805160ff191683800117855561224a565b8280016001018555821561224a579182015b8281111561224957825182559160200191906001019061222e565b5b509050612257919061225b565b5090565b61227d91905b80821115612279576000816000905550600101612261565b5090565b905600a165627a7a7230582056d7c5f81ce77e31759841c5ade63e3a06e92b714ace7ddf862206f26562d0a80029",
  "source": "pragma solidity ^0.4.21;\nimport \"installed_contracts/oraclize-api/contracts/usingOraclize.sol\";\nimport \"./StringUtils.sol\";\n\n\ncontract OraclizeTest is usingOraclize {\n\n    address owner;\n    string public ETHUSD;\n    uint public randNum;\n\n    event LogInfo(string description);\n    event LogPriceUpdate(string price);\n    event LogUpdate(address indexed _owner, uint indexed _balance);\n\n    // Constructor\n    function OraclizeTest() payable public {\n        owner = msg.sender;\n        emit LogUpdate(owner, address(this).balance);\n        // Replace the next line with your version:\n        OAR = OraclizeAddrResolverI(0x6f485C8BF6fc43eA212E93BBF8ce046C7f1cb475);\n        oraclize_setProof(proofType_TLSNotary | proofStorage_IPFS);\n    }\n\n    // Fallback function\n    function() public {\n        revert();\n    }\n\n    function __callback(bytes32 id, string result, bytes proof) public {\n        require(msg.sender == oraclize_cbAddress());\n        ETHUSD = result;\n        randNum = parseInt(ETHUSD);\n        emit LogPriceUpdate(ETHUSD);\n    }\n\n    function getBalance() public returns (uint _balance) {\n        return address(this).balance;\n    }\n\n    function update() payable public {\n        // Check if we have enough remaining funds\n        if (oraclize_getPrice(\"URL\") > address(this).balance) {\n            emit LogInfo(\"Oraclize query was NOT sent, please add some ETH to cover for the query fee\");\n        } else {\n            emit LogInfo(\"Oraclize query was sent, standing by for the answer..\");\n            oraclize_query(\"URL\", strConcat(\"https://www.random.org/integers/?num=1&min=1&max=\", StringUtils.uintToString(100), \"&col=1&base=10&format=plain\"));\n        }\n    }\n}",
  "sourcePath": "/Users/mattmartin/Documents/Notes/ConsenSys Academy/final_project/contracts/OraclizeTest.sol",
  "compiler": {
    "name": "solc",
    "version": "0.4.24+commit.e67f0147.Emscripten.clang"
  },
  "schemaVersion": "2.0.1",
  "updatedAt": "2018-08-14T01:22:59.193Z"
}