{
  "contractName": "StringUtils",
  "abi": [
    {
      "constant": true,
      "inputs": [
        {
          "name": "v",
          "type": "uint256"
        }
      ],
      "name": "uintToString",
      "outputs": [
        {
          "name": "ret",
          "type": "string"
        }
      ],
      "payable": false,
      "stateMutability": "view",
      "type": "function"
    }
  ],
  "bytecode": "0x6103e7610030600b82828239805160001a6073146000811461002057610022565bfe5b5030600052607381538281f3007300000000000000000000000000000000000000003014608060405260043610610058576000357c0100000000000000000000000000000000000000000000000000000000900463ffffffff168063e93956791461005d575b600080fd5b61007b600480360381019080803590602001909291905050506100f6565b6040518080602001828103825283818151815260200191508051906020019080838360005b838110156100bb5780820151818401526020810190506100a0565b50505050905090810190601f1680156100e85780820380516001836020036101000a031916815260200191505b509250505060405180910390f35b606061010961010483610110565b6101bf565b9050919050565b6000808290506000811415610147577f300000000000000000000000000000000000000000000000000000000000000091506101b6565b5b60008111156101b557610100826001900481151561016257fe5b0460010291507f01000000000000000000000000000000000000000000000000000000000000006030600a8381151561019757fe5b06010260010282179150600a818115156101ad57fe5b049050610148565b5b81915050919050565b6060806000806000606060206040519080825280601f01601f1916602001820160405280156101fd5781602001602082028038833980820191505090505b50945060009350600092505b60208310156102c7578260080260020a876001900402600102915060007f010000000000000000000000000000000000000000000000000000000000000002827effffffffffffffffffffffffffffffffffffffffffffffffffffffffffffff19161415156102ba5781858581518110151561028157fe5b9060200101907effffffffffffffffffffffffffffffffffffffffffffffffffffffffffffff1916908160001a90535083806001019450505b8280600101935050610209565b836040519080825280601f01601f1916602001820160405280156102fa5781602001602082028038833980820191505090505b509050600092505b838310156103ae57848381518110151561031857fe5b9060200101517f010000000000000000000000000000000000000000000000000000000000000090047f010000000000000000000000000000000000000000000000000000000000000002818481518110151561037157fe5b9060200101907effffffffffffffffffffffffffffffffffffffffffffffffffffffffffffff1916908160001a9053508280600101935050610302565b80955050505050509190505600a165627a7a7230582065662be726d31ef6250f47eca5abff8f18a6aa33fa2efbdc079beaf8096b58700029",
  "source": "pragma solidity ^0.4.21;\n\nlibrary StringUtils {\n    /// @dev Converts an unsigned integert to its string representation.\n    /// @param v The number to be converted.\n    function uintToBytes(uint v) view private returns (bytes32 ret) {\n        uint num = v;\n        if (num == 0) {\n            ret = \"0\";\n        }\n        else {\n            while (num > 0) {\n                ret = bytes32(uint(ret) / (2 ** 8));\n                ret |= bytes32(((num % 10) + 48) * 2 ** (8 * 31));\n                num /= 10;\n            }\n        }\n        return ret;\n    }\n\n    function bytes32ToString (bytes32 x) private pure returns (string) {\n        bytes memory bytesString = new bytes(32);\n        uint charCount = 0;\n        for (uint j = 0; j < 32; j++) {\n            byte char = byte(bytes32(uint(x) * 2 ** (8 * j)));\n            if (char != 0) {\n                bytesString[charCount] = char;\n                charCount++;\n            }\n        }\n        bytes memory resultBytes = new bytes(charCount);\n        for (j = 0; j < charCount; j++) {\n            resultBytes[j] = bytesString[j];\n        }\n\n        return string(resultBytes);\n    }\n\n    function uintToString(uint v) view public returns (string ret) {\n        return bytes32ToString(uintToBytes(v));\n    }\n}",
  "sourcePath": "/Users/mattmartin/Documents/Notes/ConsenSys Academy/final_project/contracts/StringUtils.sol",
  "compiler": {
    "name": "solc",
    "version": "0.4.24+commit.e67f0147.Emscripten.clang"
  },
  "schemaVersion": "2.0.1",
  "updatedAt": "2018-08-26T16:40:59.856Z"
}